:020000040800F2
:10000000904B002021020008290200082B02000862
:100010002D0200082F020008310200080000000035
:10002000000000000000000000000000890100083E
:100030003502000800000000CD010008ED080008AE
:100040003B0200083B0200083B0200083B0200089C
:100050003B0200083B0200083B0200083B0200088C
:100060003B0200083B0200083B0200083B0200087C
:100070003B0200083B0200083B0200083B0200086C
:100080003B0200083B0200083B0200083B0200085C
:100090003B0200083B0200083B0200083B0200084C
:1000A0003B0200083B0200083B0200083B0200083C
:1000B0003B0200083B0200083B0200083B0200082C
:1000C0003B0200083B0200083B0200083B0200081C
:1000D0003B0200083B0200083B0200083B0200080C
:1000E000290300083B0200083B02000800F002F868
:1000F00000F03AF80AA090E8000C82448344AAF188
:100100000107DA4501D100F02FF8AFF2090EBAE885
:100110000F0013F0010F18BFFB1A43F0010318473B
:100120002818000048180000103A24BF78C878C189
:10013000FAD8520724BF30C830C144BF04680C60ED
:10014000704700000023002400250026103A28BF35
:1001500078C1FBD8520728BF30C148BF0B60704739
:100160001FB51FBD10B510BD00F0A4F81146FFF774
:10017000F7FF00F0C9FF00F0C2F803B4FFF7F2FF89
:1001800003BC00F0C9F80000224B19680868B0E809
:10019000F00F80F30988BFF36F8F4FF0000080F3FA
:1001A00011884EF00D0E70470000000006480068F0
:1001B000006880F3088862B661B6BFF34F8FBFF363
:1001C0006F8F00DF00BF00BF08ED00E0EFF3098094
:1001D000BFF36F8F0F4B1A6820E9F00F106008B55E
:1001E0004FF0BF0080F31188BFF34F8FBFF36F8FC5
:1001F00001F022FA4FF0000080F31188BDE80840BA
:1002000019680868B0E8F00F80F30988BFF36F8FB2
:10021000704700BF08000020EFF305807047000022
:100220000948804709480047FEE7FEE7FEE7FEE78A
:10023000FEE7FEE7FEE7FEE7FEE7FEE704480549C6
:10024000054A064B7047000019090008ED00000838
:1002500090450020904B00209047002090470020C0
:100260004FF0000200B5134694469646203922BF4F
:10027000A0E80C50A0E80C50B1F12001BFF4F7AF9A
:10028000090728BFA0E80C5048BF0CC05DF804EB7C
:10029000890028BF40F8042B08BF704748BF20F8EA
:1002A000022B11F0804F18BF00F8012B70477047E8
:1002B00070477047754600F02BF8AE46050069465A
:1002C000534620F00700854618B020B5FFF7B6FF6B
:1002D000BDE820404FF000064FF000074FF0000847
:1002E0004FF0000B21F00701AC46ACE8C009ACE8C8
:1002F000C009ACE8C009ACE8C0098D46704710B52C
:100300000446AFF300802046BDE81040FFF735BF3C
:10031000004870473045002001491820ABBEFEE779
:10032000260002007047000010B54FF480542046AC
:1003300000F050F800280BD00649087830B10020B2
:1003400008702046BDE8104000F03EB80120F7E7F5
:1003500010BD0000000000207FB50121082000F042
:10036000CBF94FF48054ADF80C4048208DF80F00C5
:1003700002208DF80E0003A9124800F099F801211F
:10038000084600F0B9F90C21012000F07DF8019435
:1003900000248DF808400C208DF8090001258DF807
:1003A0000A5001A800F026F828208DF800008DF8EA
:1003B00001408DF802408DF80350684600F048F97E
:1003C0007FBD0000000C014001490860704700003B
:1003D0001404014001460020054A12680A40044BFB
:1003E00014331B680B4202D0002A00D00120704752
:1003F0000004014030B51B4A83790168002B2AD0E4
:1004000013688B431360111D0B680468A3430B60D2
:10041000017911440B68046823430B60114C0834C4
:100420002168036899432160231D19680568A94361
:1004300019604179102905D011440A680068024307
:100440000A6030BD216802681143216019680068A4
:100450000143196030BD0079104402688A4302608C
:1004600030BD00000004014010B50121042000F05F
:1004700043F90121082000F03FF90121BDE81040B7
:10048000022000F01DB9000010B58A07120F0F23DB
:10049000934021F00304054921448C689C438C60FF
:1004A0008B68904003438B6010BD0000000001404A
:1004B0002DE9F0410022CC7804F00F03E40601D5C9
:1004C0008C7823430C784FF00F0714F0FF0F4FF098
:1004D000010C1CD005680CFA02F40E882640A642D6
:1004E00011D1960007FA06F825EA080503FA06F87E
:1004F00048EA0505CE78282E02D0482E02D002E028
:10050000446100E00461521C082AE4D305600A88B3
:10051000FF2A1ED94568002202F108060CFA06F4EB
:100520000E882640A64210D1960007FA06F825EA62
:10053000080503FA06F848EA0505CE78282E00D10A
:100540004461CE78482E00D10461521C082AE3D3BE
:100550004560BDE8F08102460020D2680A4200D022
:100560000120704701617047002A01D00161704786
:100570004161704770B5144900200880124C012178
:10058000243C204600F06BFA0121204600F08EFB4F
:100590000028F9D025460021284600F060FA012104
:1005A000284600F059FA284600F07EFB044628460B
:1005B00000F078FB201A00EB401000EB80004FF4B5
:1005C0007A7190FBF1F070BD2404004010B5FFF784
:1005D0004BFF00F079FDBDE8104000F021BD10B5E3
:1005E00000F060FCBDE8104000F07EBCFFF7B4BE38
:1005F00038B50121102000F07FF810208DF803009D
:100600004FF4C044ADF8004003208DF80200054DC2
:1006100069462846FFF74CFF21462846FFF7A2FF10
:1006200038BD00000010014070B5084D4FF4005473
:1006300021462846FFF78FFFC0F10100C2B22146D4
:100640002846BDE87040FFF78FBF00000010014052
:1006500070B50F23C27801260178002A1ED0144AF3
:10066000126802F4E062C2F5E062120AC2F1040408
:10067000D3404578A54082781A402A43120101F1FF
:10068000E02181F80024007800F01F018E4040092D
:10069000800000F1E020C0F8006170BD01F01F0093
:1006A00086404809800000F1E020C0F8806170BDFC
:1006B0000CED00E000F0B2FC142000F073FFF9E74D
:1006C000054A002903D0D1690143D1617047D1693E
:1006D0008143D1617047000000100240054A0029A3
:1006E00003D01169014311617047116981431161A0
:1006F0007047000000100240054A002903D09169AC
:100700000143916170479169814391617047000095
:1007100000100240054A002903D0D1680143D1608E
:100720007047D1688143D1607047000000100240DB
:1007300010B5264A516801F00C01254B002927D03D
:10074000042927D0082927D00360516801F0F0015F
:100750000909204B5C5C0168E1404160546804F485
:10076000E064240A1C5D21FA04F48460546804F4F3
:100770006054E40A1B5DD940C160526802F44042F3
:10078000920B144B1B1F9A5CB1FBF2F1016110BD7F
:100790000360DAE70360D8E7516801F47011536829
:1007A00003F48033022404EB914133B153689B037B
:1007B00007D5094B59430160C7E7074B594301600F
:1007C000C3E7034B59430160BFE70000001002403C
:1007D00000127A005800002000093D000A4C4FF436
:1007E0007A750CE0142000F0DDFE207838B1FFF7B8
:1007F0001BFFFFF7BFFE6060284600F0D3FE2078A5
:100800000028FCD0EEE7000000000020094C4FF467
:100810007A750AE0142000F0C5FE217829B16068DD
:1008200000F048FE284600F0BDFE21780029FCD0EB
:10083000F0E7000000000020AFF300800CB50022BC
:10084000019200922748016841F4803101604FF421
:10085000A063016801F4003100910199491C0191E4
:10086000009911B901999942F3D10168890302D520
:100870000121009100E000920099012930D11A492C
:100880000A6842F010020A600A6822F007020A6051
:100890000A6842F002020A604168416041684160B2
:1008A000416841F480614160416821F47C114160FC
:1008B000416841F4E8114160016841F080710160D4
:1008C00001688901FCD5416821F00301416041685C
:1008D00041F0020141604168C1F381010229FAD16E
:1008E0000CBD0000001002400020024010B5BF20E7
:1008F00080F31188BFF34F8FBFF36F8F00F00CFFB1
:1009000018B104494FF080500860002080F311882E
:1009100010BD000004ED00E010B50F48016841F083
:100920000101016041680D4A1140416001680C4AB3
:1009300011400160016821F480210160416821F4C7
:10094000FE0141604FF41F018160FFF775FF05490B
:100950004FF00060086010BD001002400000FFF87A
:10096000FFFFF6FE08ED00E070B5048C24F00104F2
:100970000484058B048C25F0F3054FF6FF7606EA18
:10098000031313432B43104A90420ED00F4A904258
:100990000BD0B0F1804F08D00D4A904205D00D4ADF
:1009A000904202D00C4A904205D124F002020A4340
:1009B00042F0010104E024F00A020A4342F001017E
:1009C0000383018470BD0000002C0140003401400D
:1009D0000004004000080040000C0040F0B5048C0A
:1009E00024F010040484068B048C4FF6FF7505EA8E
:1009F000011726F4734605EA0333334305EA02225E
:100A00001A43104B98420ED00F4B98420BD0B0F1C6
:100A1000804F08D00D4B984205D00D4B984202D024
:100A20000C4B984205D124F02001394341F01001CC
:100A300004E024F0A0030B4343F01001028301847F
:100A4000F0BD0000002C01400034014000040040D3
:100A500000080040000C0040C94301827047002993
:100A600004D0018841F0010101807047018821F024
:100A7000010101807047002905D030F8441F41F47E
:100A800000410180704730F8441FC1F30E0101801E
:100A90007047000010B5734988420AD1C41401217F
:100AA0002046FFF737FE2046BDE810400021FFF743
:100AB00031BEB0F1804F0CD06B49884213D1012177
:100AC0000220FFF70BFE0021BDE810400220FFF7D7
:100AD00005BE01210846FFF701FE0021BDE81040D8
:100AE0000120FFF7FBBD6149884209D101210420A3
:100AF000FFF7F4FD0021BDE810400420FFF7EEBD34
:100B00005B49884209D101210820FFF7E7FD002158
:100B1000BDE810400820FFF7E1BD5649884209D1E1
:100B200001211020FFF7DAFD0021BDE81040102060
:100B3000FFF7D4BD5049884209D101212020FFF799
:100B4000CDFD0021BDE810402020FFF7C7BD4B4977
:100B500088420AD1441401212046FFF7DBFD2046DC
:100B6000BDE810400021FFF7D5BD454988420AD1B4
:100B70000121CC042046FFF7CDFD2046BDE8104002
:100B80000021FFF7C7BD3F4988420AD101210C056A
:100B90002046FFF7BFFD2046BDE810400021FFF7CB
:100BA000B9BD394988420AD101214C052046FFF7D9
:100BB000B1FD2046BDE810400021FFF7ABBD334931
:100BC000884209D101214020FFF788FD0021BDE8BE
:100BD00010404020FFF782BD2D49884209D10121F4
:100BE0008020FFF77BFD0021BDE810408020FFF74B
:100BF00075BD284988420AD1841501212046FFF796
:100C00006DFD2046BDE810400021FFF767BD224979
:100C100088420AD101210C042046FFF77BFD2046C3
:100C2000BDE810400021FFF775BD1C4988420AD17C
:100C300001214C042046FFF76DFD2046BDE8104021
:100C40000021FFF767BD164988420AD101218C04B3
:100C50002046FFF75FFD2046BDE810400021FFF76A
:100C600059BD10BD002C01400004004000080040A8
:100C7000000C00400010004000140040003401400F
:100C8000004C014000500140005401400018004059
:100C9000001C004000200040004001400044014092
:100CA00000480140808E7047008F70470246002048
:100CB000128A0A4200D001207047000070B5028CF1
:100CC00022F480720284028C8388848B24F0700466
:100CD00024F003040D88254322F400720E894FF698
:100CE000FF7404EA062616434A8804EA02223243C5
:100CF000114EB04202D0114EB04217D122F400661C
:100D00004A8904EA0222324322F480668A8804EA8D
:100D10000222324323F4805323F400538E8904EAE1
:100D200006161E43CB8904EA03133343838085836D
:100D3000C9888187028470BD002C014000340140C5
:100D40000021018041808180C180018141818181B8
:100D5000C18170472DE9F04107460C460025012668
:100D60006188002900D10225A288012A00D102262B
:100D70002088238990B13846FFF730FEE188384655
:100D800000F035F82389324629463846FFF7ECFD56
:100D9000E1883846BDE8F04100F021B83846FFF759
:100DA000E3FDE188384600F01AF8238932462946E7
:100DB0003846FFF713FEE1883846BDE8F04100F001
:100DC00016B8028922F070020A4302817047028934
:100DD00022F08002028102890A4302817047028B5D
:100DE00022F00C020283028B0A4302837047028BBB
:100DF00022F440620283028B4FF6FF7303EA012163
:100E00000A4302837047000030B502881B4C1C4D1A
:100E1000A0420DD0A8420BD0B0F1804F08D0194BA2
:100E2000984205D0184B984202D0184B984203D1F3
:100E300022F070034A881A43154B984206D0154B8E
:100E4000984203D022F44073CA881A4302808A88E9
:100E500082850A880285A0420AD0A84208D00E4A9C
:100E6000904205D00D4A904202D00D4A904201D1E5
:100E7000097A01860121818230BD0000002C0140E9
:100E8000003401400004004000080040000C004015
:100E900000100040001400400040014000440140A8
:100EA000004801401FB501218804FFF709FC4FF4F9
:100EB000165000900020ADF80C000C21ADF80A107F
:100EC000ADF80800ADF80600ADF80400054C694621
:100ED000204600F041F80121204600F029F804B036
:100EE000012010BD0048004038B501210820FFF75F
:100EF00003FC18208DF803004FF48060ADF800006B
:100F000003248DF80240094D69462846FFF7D0FAC0
:100F100004218DF803104902ADF800108DF802404D
:100F200069462846FFF7C4FA012038BD000C01408D
:100F3000002904D0818941F4005181817047818961
:100F400021F40051818170470246002012880A4234
:100F500000D001207047000030B585B004460D4632
:100F6000208A4CF6FF710840E98801432182A0895C
:100F70004EF6F3110840A9882A8911436A89024371
:100F80001143A181A08A4FF6FF410840A98901437E
:100F9000A1826846FFF7CCFB1D48844201D103982B
:100FA00000E00298A189090408D500EBC00101EB1B
:100FB000001029684900B0FBF1F007E000EBC00128
:100FC00001EB001029688900B0FBF1F06422B0FB4E
:100FD000F2F109010B096FF018056B4300EB830078
:100FE000A3891D044FF0320307D503EBC000B0FB0B
:100FF000F2F000F00700084306E003EB0010B0FB3E
:10100000F2F000F00F000843208105B030BD000071
:1010100000380140C1F3080181807047FFF784B9AF
:1010200070B590B00BA8FFF783FB25490B98B0FB78
:10103000F1F4641E234E3046FFF72CFDADF820403E
:101040000024ADF822404FF6FF70ADF82400ADF853
:10105000264008A93046FFF7D7FE04A8FFF770FE28
:101060006020ADF810000125ADF812500F20ADF84A
:101070001600ADF8184004A93046FFF71FFEADF882
:101080000440ADF80640ADF80850ADF80A40ADF8A0
:101090000C4001A93046FFF75DFE50213046FFF7B6
:1010A00090FE80213046FFF792FE01213046FFF787
:1010B000E2FC01213046FFF7CFFC10B070BD00000C
:1010C00040420F000004004038B50120ADF8000098
:1010D00003248DF8024018208DF803006946084863
:1010E000FFF7E6F94020ADF800008DF8024004203B
:1010F0008DF8030069460348FFF7DAF938BD0000B0
:10110000000C0140000801401CB5FFF771FAFFF721
:101110005DFAFFF76BFAFFF762FA00240220CDE9CF
:101120000004234680220DA1114800F0C1FA0320DB
:10113000CDE90004002380220EA1124800F0B8FA85
:101140000120CDE90004002380220FA1124800F005
:10115000AFFA00F041FA00201CBD00005265636543
:1011600069766520446174612053656E736F720007
:10117000DD070008427574746F6E5F4F4E5F4F4617
:1011800046000000B506000853656E642064617473
:1011900061205541525400000D0800082DE9F0412E
:1011A00004460F461E4DEE682868001D00F098F9B1
:1011B00038B9286890F82C100120884029698143AB
:1011C0002961601C15D1A7B1164948682A6890604A
:1011D00082682B68DA602A688368121D5A602A6860
:1011E000121D8260286841610868401C0860BDE8E3
:1011F000F081344428684460B44206D22968E86B20
:10120000091DBDE8F04100F08CB92968A86B091DE3
:1012100000F087F9A86A8442E9D2AC62E7E70000EF
:10122000080000201C01002070B5044600F092F96F
:10123000244DA868401CA860286810B1686938B1BE
:101240000CE02C60A868012808D100F0B5F805E092
:101250002868E16AC06A884200D82C60686A401C2D
:101260006862E06A01212A69814011432961164AB6
:1012700000EB800002EB80004068A0608168E160C4
:101280008368211D59608160E06A00EB800002EBF9
:101290008001616152F82010491C42F8201000F0D2
:1012A00067F9686900280CD02868E16AC06A88423A
:1012B00007D206494FF080500860BFF34F8FBFF34D
:1012C0006F8F70BD080000206800002004ED00E072
:1012D00070B50C4D0C4E11E000F03CF9F068C4689C
:1012E000201D00F0FDF8A868401EA8606868401E38
:1012F000686000F03DF9204600F008F868680028B2
:10130000EAD170BD080000200801002010B5044695
:10131000206B00F039F92046BDE8104000F034B9E8
:10132000074E4FF08054074DFFF7D2FF3068012879
:10133000FAD92C60BFF34F8FBFF36F8FF4E7000033
:101340006800002004ED00E02DE9F0478146DDE96A
:1013500008560A9C9846521E206B00EB820020F033
:10136000070700290CD0002023180A5C83F83420DA
:101370000A5C12B1401C1028F6D3002084F8430008
:10138000052D00D30425E562201D00F0C7F804F107
:10139000180000F0C3F82461C5F10500A061646283
:1013A00042464946384600F077F82060002E00D0CB
:1013B0003460BDE8F087000070B50024124D04EBE6
:1013C000840005EB800000F09EF8641C052CF6D329
:1013D0000D48643000F097F80B48783000F093F82F
:1013E00009488C3000F08FF80748A03000F08BF8E7
:1013F0000548B43000F087F803490448643181633C
:101400001431C16370BD0000680000200800002096
:101410000648816B0968002904D0816BC968096896
:10142000816270474FF0FF318162704708000020F1
:10143000BF2080F31188BFF34F8FBFF36F8FFEE79C
:1014400070B504460025600709D004F00700C0F11C
:1014500008002044A04201D9044600E0002400F026
:10146000E3F80B4A506818B90A4820F007005060AA
:1014700054B1106844F2F8330119994204D2814200
:1014800002D953681D18116000F0D4F9284670BDC8
:101490004C0000203701002020384FF08073C361DA
:1014A00021F0010181610249416140F82029704722
:1014B0003114000870B50546084C208810F00B0F59
:1014C0000BD180212046FFF73FFD0028F9D0A9B2BB
:1014D0002046BDE87040FFF79DBD70BD004800404C
:1014E0000169D0E901329A60D0E901235A604A6863
:1014F000824201D182684A60002202610868401E6F
:1015000008600868704700F1080141604FF0FF3241
:101510008260C160016100210160704700210161AA
:10152000704730B50C68621C02D000F1080202E07E
:10153000026904E01A4653681D68A542FAD9536847
:101540004B6099608A60516008610168491C0160C4
:1015500030BD0000BF2080F31188BFF34F8FBFF371
:101560006F8F02480168491C0160704748000020E5
:1015700004490868401E0860002801D180F31188E2
:101580007047000048000020704700004FF0E02046
:1015900000210161816102494161072101617047B8
:1015A0003F19010010B502460020002A07D000F0C4
:1015B0003BF800211046FFF7F1FD00F03BF9002851
:1015C00007D104494FF080500860BFF34F8FBFF33D
:1015D0006F8F10BD04ED00E07CB50F480025CDE90C
:1015E00000502B4680220DA10E4800F061F80A4CF5
:1015F0002C3C01280ED1BF2080F31188BFF34F8F00
:10160000BFF36F8F4FF0FF30A06201206061E56093
:1016100000F036F8206B7CBD3400002049444C4576
:1016200000000000211300080248416B491C41637F
:1016300070470000080000200F4A506B002802D0BD
:101640000120D06170470020D0611069B0FA80F0AD
:10165000C0F11F00094900EB800001EB80004168E8
:101660004968416000F10803994201D1496841602D
:101670004068C068106070470800002068000020C3
:1016800010B50948016841F47F010160016841F02B
:101690007F410160FFF77AFF044900200860FEF7F0
:1016A00085FD002010BD000020ED00E04800002076
:1016B0002DE9FF5F8146DDE90E788A4616469B4696
:1016C000B000FFF7BDFE054628000ED04C20FFF706
:1016D000B7FE04462CB14C212046FEF7C1FD256320
:1016E00004E02846FFF750FF00E000248CB1002002
:1016F000CDE90240CDE900785B4632465146484686
:10170000FFF722FE2046FFF78FFD012004B0BDE861
:10171000F09F4FF0FF30F9E72DE9F0410025434EEF
:10172000706B002805D0B069401CB0612846BDE848
:10173000F081F468641CF46044B9B06BF16BB16380
:10174000F063306A401C3062FFF762FEB06A384FC7
:1017500084420FD34FF0000CB06B006838B1B06B0F
:10176000C068C1684868844212D2B06202E04FF09B
:10177000FF30B0623068C06A00EB800057F820008C
:10178000012800D90125F0690028CFD00125CDE737
:101790004A69D1E902309860D1E902035860506883
:1017A0000B1D984201D1C8685060C1F814C0106880
:1017B000401E10608A6A9AB1D1E90780C8F8080013
:1017C000D1E90708C8F80400506801F1180840453D
:1017D00001D1086A5060C1F828C01068401E10602E
:1017E000C86A0122D6F81080824042EA08023261BB
:1017F00000EB800007EB800042688A609068C86058
:10180000906843609360C86A00EB800007EB800239
:101810004A6157F82020521C47F82020C86A3168D6
:10182000C96A884298D9012596E70000080000207F
:10183000680000202DE9F0410024A046FFF78AFE51
:101840003E4D686B401E6863686B002871D1A868C4
:1018500000286ED000273A4A01264EE0D068C468BE
:10186000A16AD4E907309860D4E9070358604B684F
:1018700004F11800834201D1206A4860A762086819
:10188000401E08606169D4E902309860D4E902031F
:1018900058604B68201D834201D1E3684B6067614B
:1018A0000B685B1E0B60E16AD5F810C006FA01F305
:1018B00043EA0C032B61224B01EB81018C3B03EBD0
:1018C00081014968A160D1F808C0C4F80CC0D1F802
:1018D00008C0CCF804008860E06A00EB800003EBED
:1018E0008001616153F82010491C43F82010E06A20
:1018F0002968C96A884200D3EE6110680028ADD11A
:101900000CB1FFF785FDAC693CB1FFF705FF00B1F5
:10191000EE61641E002CF8D1AF61E86948B14FF068
:10192000010808494FF080500860BFF34F8FBFF3A4
:101930006F8FFFF71DFE4046BDE8F08108000020D4
:10194000F400002004ED00E0681900080000002009
:101950006800000028010008D01900086800002075
:10196000284B0000440100080000000000000000B7
:101970000000000000000000000000000000000067
:101980000000000000000000000000000000000057
:101990000000000000000000000000000000000047
:1019A0000400000000000000000000000000000033
:1019B000AAAAAAAA0000000000000000020406086B
:1019C00000000000010203040102030406070809E5
:04000005080000ED02
:00000001FF
